:100000000C94F7020C943E030C943E030C943E03B4
:100010000C943E030C943E030C943E030C943E035C
:100020000C943E030C943E030C9455290C94292AFD
:100030000C9479240C943E030C943E030C943E03E0
:100040000C943E030C943E030C943E030C943E032C
:100050000C943E030C94D0240C943E030C943E0369
:100060000C943E030C943E030C943E030C943E030C
:100070000C943E030C943E030C943E030C943E03FC
:100080000C943E030C943E030C943E030C943E03EC
:100090000C943E030C943E030C943E030C943E03DC
:1000A0000C943E030C943E030C943E0329001E0066
:1000B0001F0020002100220023002400250026002C
:1000C00027002D002E0000002A002B000000140045
:1000D0001A000800150017001C0018000C00120080
:1000E00013002F0030003200390000000400160019
:1000F000070009000A000B000D000E000F0033007E
:10010000340028000000E10064001D001B00060010
:1001100019000500110010003600370038000000FB
:10012000E5000000E000E3000000E2000000000045
:100130002C00000000000000E600E7000000015174
:10014000E40038003A003B003C003D003E003F0028
:1001500040004100420043004400450000004C00C4
:10016000000000000000BF5C000000000000000074
:10017000000000000000000000000000000000007F
:100180000000C05CBE5CC15CC35C000000000000FD
:10019000000000000000000000000000000000005F
:1001A000000000000000000000000000000000004F
:1001B000000000000000000000000000000000003F
:1001C000000000000000000000000000000000002F
:1001D0000000000001000253AA00A9000000000076
:1001E000000000000000000000000000000000000F
:1001F00000000000000000000000000052000000AD
:1002000000000000000000000000000000000000EE
:100210000000000000000000500051004F000000EE
:1002200000000000000000000000000000000000CE
:1002300000000000000000000000000000000000BE
:1002400000000000000000000000000000000000AE
:10025000000000000000000000000000000000009E
:1002600000000000000000000000010001001E0F5F
:100270000500047F3F1F643214643214783C1E1E54
:10028000140A052223252628292A2C2D2F30323323
:100290003536383A3B3D3E4042434547494A4C4E4D
:1002A0005051535557595A5C5E6062646668696B79
:1002B0006D6F71737577797B7D7F81838587898A7F
:1002C0008C8E90929496989A9C9E9FA1A3A5A7A885
:1002D000AAACAEAFB1B3B4B6B8B9BBBCBEBFC1C2B5
:1002E000C3C5C6C7C9CACBCCCDCED0D1D2D2D3D448
:1002F000D5D6D7D7D8D9D9DADADBDBDBDCDCDCDC66
:10030000DCDDDDDDDDDCDCDCDCDCDBDBDBDADAD933
:10031000D9D8D7D7D6D5D4D3D2D2D1D0CECDCCCBB5
:10032000CAC9C7C6C5C3C2C1BFBEBCBBB9B8B6B4D3
:10033000B3B1AFAEACAAA8A7A5A3A19F9E9C9A9863
:10034000969492908E8C8A89878583817F7D7B7934
:10035000777573716F6D6B6968666462605E5C5A15
:100360005957555351504E4C4A4947454342403ED8
:100370003D3B3A3836353332302F2D2C2A2928266A
:10038000252322FFAA7F554000010101010101013F
:10039000010102020202020202020203030303033A
:1003A0000303030404040404040405050505050609
:1003B00006060606070707070708080808090909C7
:1003C000090A0A0A0B0B0B0C0C0C0D0D0D0E0E0E70
:1003D0000F0F0F1010111111121213131414151501
:1003E00016161717181819191A1A1B1B1C1D1D1E73
:1003F0001E1F2020212222232424252626272829C7
:10040000292A2B2C2D2D2E2F3031323233343536F4
:100410003738393A3B3C3D3E3F40414243444546F4
:100420004748494A4C4D4E4F5051535455565859D0
:100430005A5B5D5E5F616264656668696B6C6D6F77
:100440007072737577787A7B7D7E808283858788EA
:100450008A8C8E8F91939596989A9C9EA0A2A3A524
:10046000A7A9ABADAFB1B3B5B7BABCBEC0C2C4C625
:10047000C9CBCDCFD1D4D6D8DBDDDFE2E4E7E9EBE1
:10048000EEF0F3F5F8FAFDFF0A0344005A003600D7
:100490003000000010034B004200440046006100A1
:1004A0006E00730000000403090409023B0002010E
:1004B00000A0FA0904000001030101000921110153
:1004C00000012240000705810308000A0904010019
:1004D000010300000009211101000122B6000705F7
:1004E000820320000A12011001000000085A446033
:1004F0002201000102000105010902A10185020992
:1005000001A10005091901290815002501950875A3
:100510000181020501093009311581257F95027598
:1005200008810609381581257F9501750881060522
:100530000C0A38021581257F950175088106C0C017
:1005400005010980A101850319012AB700150126BB
:10055000B700950175108100C0050C0901A1018546
:100560000419012AA002150126A002950175108127
:1005700000C005010906A1018505050719E029E765
:10058000150025019508750181020507190029EF5D
:100590001500250195F0750181020508190129054D
:1005A000950575019102950175039101C005010939
:1005B00006A101050719E029E71500250195087531
:1005C0000181029501750881010507190029FF15B0
:1005D0000026FF0095067508810005081901290508
:1005E000950575019102950175039101C0001124D3
:1005F0001FBECFEFDAE0DEBFCDBF04B603FE27C0DB
:100600008091740390917503A0917603B091770364
:100610008730904BA740B04BD1F4109274031092E6
:100620007503109276031092770314BE84B7877F08
:1006300084BF0FB6F894A89580916000886180937C
:100640006000109260000FBEE0E0F8E3099511E051
:10065000A0E0B1E0E4EEFAE502C005900D92AE3CF8
:10066000B107D9F723E0AEECB1E001C01D92A43789
:10067000B207E1F70E9491260C94482D0C940000DB
:1006800081E0089581E008950C94420308950C944C
:1006900046031F93CF93DF9300D000D00F92CDB7C6
:1006A000DEB749835A836B8330915B0289819A81DB
:1006B00031111DC06623B9F02223A9F00E94352113
:1006C000182F682F89819A810E94E12069817A819F
:1006D000812F0F900F900F900F900F90DF91CF917F
:1006E0001F910C942A040E940D21182FEFCF0E9415
:1006F000352169817A81EDCFFC01262F408151811E
:100700006281738184810C944903CF93DF93EC0160
:1007100060E00E947C03BE01DF91CF910C944703FF
:100720000E948C070E941B040E94F3140C94B107D2
:100730000C94B40708950E944B1C0E949A032FEF5B
:1007400084E39CE0215080409040E1F700C000002D
:100750000C94F4240F931F93CF93DF938C0161E0EB
:100760000E947C03EC01B8010E944403882309F431
:1007700041C0B801CE010E945F148823D9F1B801AD
:10078000CE010E949B158823A9F1B801CE010E94D9
:10079000ED15882379F1B801CE010E941017882346
:1007A00049F1B801CE010E94B612882319F1F8016F
:1007B0008281882361F0CB35FDE5DF0721F170F4FC
:1007C000C115ECE5DE07A1F0CF3DDC45C9F0C8015D
:1007D000DF91CF911F910F910C944003CC358DE5A3
:1007E000D807A1F0CD35DD4591F70E94DC21EFCF90
:1007F0000E949B0380E0DF91CF911F910F9108959C
:100800000E945923F7CF0E94E521E1CF0E94E82101
:10081000DECF08950C94090481E00895CF93C82F8A
:100820000E940C04882319F0C1FD03C02A9ACF91BD
:1008300008952A98FCCF229A2A9A0895CF93C82F18
:100840000E940A048C2FCF910C940E0490E080E05B
:1008500008950895972F70E02FE0929F600D711D0D
:100860001124FB019BE4899FE00DF11D1124EE0F83
:10087000FF1FE455FF4F859194910895FC01EE0F01
:10088000FF1FE259FD4F859194910895CF93DF9317
:100890000E942A040E945B05EC01811520E5920765
:1008A00008F042C0811530E4930708F0BDC0883ECF
:1008B000910528F5803E910508F09DC0883A910584
:1008C00088F4853A910508F08FC08130910509F4CC
:1008D00092C0009709F48FC0049708F08CC0D0E054
:1008E000C0E089C08F3B910508F489C0805C910904
:1008F000C03CD105A0F30E943E04EC017CC08115F0
:10090000904250F4C11581E0D80708F074C0CD3E84
:10091000D10528F3D0656FC0C11590E3D90708F061
:1009200079C0CE019F70E7CF811525E5920758F574
:10093000811534E5930708F0A6C0811542E59407B8
:1009400050F4C11581E5D80708F471C0DC2FCC271D
:10095000C16FD06A50C0982F969596959E012370CE
:100960003327C115D34508F07FC0C1E0D0E002C0F5
:10097000CC0FDD1F2A95E2F720E2929FC0011124DF
:10098000C82BD92B6FC0C11589E5D807A8F4C115AC
:1009900098E5D90708F07CC0C11526E5D20708F014
:1009A0009ECF8C2F0E94F205C82FD0E0DC2FCC27E1
:1009B000CC27DF71D0621FC0C1153AE5D30708F418
:1009C0006CC0CE0190568115904208F088CF8D2FD3
:1009D0008F710E94F20590E0982F882788279F71D9
:1009E0009C012C2BE901E6CFC55AD0E0C65ADE4F58
:1009F000C881D0E0D064CE01DF91CF910895C85A6C
:100A0000D0E0CC0FDD1FC45DDE4F0990D881C02D32
:100A1000D464F1CFCE019927D3FF03C0EC01D86C89
:100A2000EACFEC01D06CE7CFDF70D06AE4CFCE0123
:100A3000E4E096958795EA95E1F783702C2F26954B
:100A40002695237090E2299F90011124382B8C2F3A
:100A50008370C1E0D0E002C0CC0FDD1F8A95E2F7C1
:100A6000C22BD32BDC68C7CFC1E0D0E002C0CC0FD3
:100A7000DD1F2A95E2F730E2939FC0011124C82BB5
:100A8000D92BDA68B8CFD82FCC27C46FD06AB3CFB0
:100A9000DC2FCC27C06FD06AAECF8C2F8F700E9416
:100AA000F20534E0D695C7953A95E1F7CF709C2FC3
:100AB000EC01D069A0CF82389105B1F1B0F4813357
:100AC000910509F475C048F48932910509F469C0AB
:100AD0008A32910509F473C008958533910509F4AC
:100AE00059C08933910501F10895833E9105A9F11B
:100AF00038F4803E9105F9F0823E910549F1089560
:100B0000863E9105A9F1873E9105C9F1843E910584
:100B100019F52091180321FF1FC08091170384FD50
:100B200014C087EE90E00895209117032370A1F080
:100B300080EE90E008952091170320FD47C030918A
:100B4000180330FF09C024FF44C090E080E004C0D7
:100B50002091170322FDF7CF08952091170322FD5E
:100B60003BC03091180330FDE3CF24FFF5CFEDCF2C
:100B70002091170323FFF0CF24FDE7CFD2CF2091A0
:100B8000170323FD2CC03091180331FFEECF84EE04
:100B900090E008952091170325FFDECF89E290E0D1
:100BA00008952091170325FFD7CF85E390E008959E
:100BB0002091170326FFD0CF8AE290E0089520917C
:100BC000170326FFC9CF81E390E0089589E390E001
:100BD000089583EE90E0089582EE90E0089586EE09
:100BE00090E008959091170392FF06C0282F287176
:100BF0002830F9F4877F846093FF06C0282F28717E
:100C00002831F1F4877E84612091180320FF06C00B
:100C1000382F38713830D9F4877F816021FF06C0C2
:100C2000282F28712831D1F4877E816194FD877E39
:100C30000895282F24712430F9F68B7F8860DCCF4B
:100C4000282F2471243101F78B7E8861DDCF382F66
:100C50003171313019F78E7F8860E0CF282F2171F4
:100C6000213121F78E7E8861E1CFAF92BF92CF9282
:100C7000DF92EF92FF920F931F93CF93C0E0CC24AB
:100C8000C394D12CE82EF12C8C2F0E94B6075C0166
:100C900010E000E0C601002E02C0880F991F0A94E0
:100CA000E2F78A219B21892B99F40F5F1F4F0F30A8
:100CB000110581F7CF5FC53039F780E0CF911F91E3
:100CC0000F91FF90EF90DF90CF90BF90AF9008957D
:100CD000602F7C2F80E00E942A04E816F90629F78D
:100CE00081E0ECCFCF93C82F8CE20E943506882399
:100CF00021F08C2FCF910C94350680E0CF91089590
:100D0000CF93C5E6C15009F0CAC089E20E947206BD
:100D1000811100C18AE20E94720681110E9459234A
:100D200085E00E94720681110E94F42487E00E94EF
:100D30007206882371F08BE10E947206882309F401
:100D4000B7C09091F302892F8D7F91FF82608093CD
:100D5000F3028091F3020E94B92280EE0E94720693
:100D6000882341F090911703892F8E7F90FF816037
:100D70008093170389E30E947206882341F09091C3
:100D80001703892F8D7F91FF82608093170382EE76
:100D90000E947206882341F090911703892F8B7F60
:100DA00092FF84608093170386EE0E947206882368
:100DB00041F090911703892F877F93FF886080937C
:100DC000170383EE0E947206882341F09091170367
:100DD000892F8F7E94FF80618093170385E30E94A3
:100DE0007206882341F090911703892F8F7D95FF1C
:100DF00080628093170381E30E947206882341F08A
:100E000090911703892F8F7B96FF8064809317033F
:100E100081E10E947206882341F090911703892F87
:100E200097FB87F98058809317038091170390915F
:100E300018030E94D52287E20E947206811155C0D4
:100E40008EE10E947206811152C08FE10E947206EB
:100E500081114FC080E20E94720681114CC081E274
:100E60000E947206811149C082E20E9472068111BD
:100E700046C083E20E947206811143C084E20E9450
:100E800072068111C0E88C2F0E94C2228FE00E945E
:100E900072068823C1F181E0CF910C945B230E94FC
:100EA0002D088FE39CE90197F1F700C000002ACFDD
:100EB0008EE00E947206882339F09091F302892F08
:100EC0008B7F92FF846043CF80E10E9472069091F5
:100ED000F302882329F0892F877F93FF886037CF1B
:100EE000892F8E7F90FF816032CFC1E0CCCFC2E0EE
:100EF000CACFC4E0C8CFC8E0C6CFC0E1C4CFC0E20B
:100F0000C2CFC0E4C0CF85E10E947206882311F0F1
:100F100080E0C2CFCF9108950E94AA22811102C021
:100F20000E9459230E94B5228093F3020E94C72297
:100F300090931803809317030E9480060E94BE229C
:100F4000682F70E090E080E00E94E31F6091C6028D
:100F50007091C7028091C8029091C9020C941D2023
:100F600008950C94B00708950C94B307E82FF0E0AF
:100F7000EE0FFF1FED5DFC4F808191810895089574
:100F800080EA8A95F1F7089500C008950C94C0078F
:100F9000F894E82FE295EF70F0E031A1282F2F7040
:100FA00081E090E001C0880F2A95EAF7982F90958C
:100FB000932391A392A1892B82A3789408950F93F0
:100FC0001F93CF93DF9380E90E94C80781E90E94B5
:100FD000C80782E90E94C80783E90E94C80785E91B
:100FE0000E94C807CDE5D1E00CE611E089910E948E
:100FF000C8070C171D07D1F710921A031092190396
:10100000109224031092230310921C0310921B03CE
:10101000109226031092250310921E0310921D03B6
:1010200010922803109227031092200310921F039E
:1010300010922A0310922903109222031092210386
:1010400010922C0310922B0385E00E94AD08DF91D3
:10105000CF911F910F910C949003AF92BF92DF92AA
:10106000EF92FF920F931F93CF93DF93CCE6D1E0E3
:1010700009E113E0D12CEE24E394F12C8991F8944A
:10108000E82FE295EF70F0E021A18F70A70102C078
:10109000440F551F8A95E2F7CA01922F982B91A30E
:1010A00092A18095892382A378940E94C407EDE5DC
:1010B000F1E030E020E0B12CA12C4191A42FA295C9
:1010C000AF70B0E090968C9190E04F7002C0959513
:1010D00087954A95E2F780FD3BC0C701022E02C00A
:1010E000880F991F0A94E2F7A82AB92A2F5F3F4F69
:1010F0002F30310511F7FE01319780810E94C8071A
:101100000E94C607F80180819181A816B90619F1DD
:10111000B182A08281E0D82A0E5F1F4FF1E0C13773
:10112000DF0709F0ABCF2D2D45E063E273E089E1E5
:1011300093E00E94AE080E9498038D2DDF91CF911D
:101140001F910F91FF90EF90DF90BF90AF900895A7
:1011500090E080E0C9CF80E0DECF0895FF920F934A
:101160001F93CF93DF93F82E092F162FD72FC42F5D
:10117000222349F081E08093D2010E94A924909318
:10118000D1018093D0018091D2018823A1F0809178
:10119000D0019091D1010E94C124069760F0EF2DFB
:1011A000F02FA12FBD2F90E080E0D0E08C179D079D
:1011B00044F01092D201DF91CF911F910F91FF90D7
:1011C0000895219131912D933D930196EFCF809118
:1011D000D90180FF12C06091090185E0689FB001CC
:1011E0001124759567957595679560387105A8F513
:1011F00061157105A1F1862F089581FF09C06091E5
:10120000090185E0689FB001112475956795EDCFC0
:101210006091090182FD0AC08091D8018823D1F034
:101220009091080160910901891728F085E0689F75
:10123000B0011124DACF869FB001112485E0869F8A
:101240009001879F300D1124692F70E0C9010E9421
:101250000B2CCBCF65E070E0CECF8FE7089581E017
:1012600008958091D90180FF0CC06091050170E064
:1012700075956795759567956115710549F1862F87
:10128000089581FF06C06091050170E0759567952E
:10129000F3CF6091050182FD0BC09091D701992396
:1012A000A1F06091040180910501961738F0682F34
:1012B00070E06038710500F38FE70895899FC001E1
:1012C000112470E00E940B2CF4CF61E070E0D7CFC6
:1012D00081E008958D3E31F40E94E7088195809366
:1012E000DD0108958E3E19F40E94E708F8CF8F3E85
:1012F00031F40E94E70881958093DC010895803FD6
:1013000019F40E94E708F8CF893F29F40E943109B7
:101310008093DE0108958A3F21F40E94310981956E
:10132000F7CF8B3F31F40E94310981958093DF0123
:1013300008958C3F19F40E943109F8CF9FE0980F6F
:10134000983070F4815F990B21E030E001C0220FEA
:101350008A95EAF78091DB01822B8093DB01089567
:101360008D3F31F48091D90181608093D901089536
:101370008E3F21F48091D9018260F7CF8F3FB9F77A
:101380008091D9018460F1CF4091DC018D3E59F408
:101390008091DD0187FF0DC01092DD0141110BC06E
:1013A0001092D80108C08E3E81F48091DD0118169C
:1013B0009CF3442381F08091DE019091DF01892B21
:1013C00009F05AC01092D70108958F3E49F447FFA3
:1013D000F0CF1092DC018091DD018111ECCFE0CFE4
:1013E000803F19F41416ACF3E4CF9091DE01893FED
:1013F00029F41916F4F61092DE01DBCF8A3F19F4B6
:1014000097FFD7CFF8CF9091DF018B3F29F497FF5B
:10141000D0CF1092DF01CDCF8C3F19F41916CCF349
:10142000C8CF9FE0980F983090F4815F990B21E02E
:1014300030E0B90102C0660F771F8A95E2F7CB0151
:1014400080959091DB0189238093DB01B2CF8D3FA2
:1014500031F48091D9018E7F8093D901AACF8E3F3C
:1014600021F48091D9018D7FF7CF8F3F09F0A1CF73
:101470008091D9018B7FF0CF08950E94A9249C010F
:101480009091DC018091DD01982B21F03093D60101
:101490002093D5019091DE018091DF01982B21F0FE
:1014A0003093D4012093D3018AED91E00C94651719
:1014B000EF92FF920F931F93CF93DF9300D000D052
:1014C00000D0CDB7DEB786E0EAEDF1E0DE0111969F
:1014D00001900D928A95E1F7E090DC01F090DD013A
:1014E0000091DE011091DF011092DC011092DD010C
:1014F0001092DE011092DF018E2D8F2991F08091E4
:10150000D5019091D6010E94C124AC019091D801DF
:10151000992309F43FC080910A018417150608F445
:1015200047C0802F812B91F08091D3019091D401FD
:101530000E94C124AC019091D701992309F477C08E
:10154000809106018417150608F47FC08091DC01A4
:101550009091DD01892B9091DE01892B9091DF0123
:10156000892B11F00E943D0A86E0FE013196AAED1A
:10157000B1E001900D928A95E1F726960FB6F894A6
:10158000DEBF0FBECDBFDF91CF911F910F91FF90B6
:10159000EF90089520910B018AE0289F900111247B
:1015A0002417350708F0BDCF9F5F9093D80102C084
:1015B0009F3FD1F7EE2059F00E94E7089FEF1E14DD
:1015C0000CF491E0899F802D11248093DC01FF2091
:1015D00059F00E94E7089FEF1F140CF491E0899FD7
:1015E000802D11248093DD013091DC01332309F437
:1015F00098CF2091DD01222309F493CF45EB3403EA
:10160000C0011124992359F09093DC0145EB240388
:1016100090011124332339F03093DD0182CF81E032
:101620008093DC01F3CF81E08093DD017ACF2091BC
:1016300007018AE0289F900111242417350708F03C
:1016400085CF9F5F9093D70102C09F3FD1F70023C2
:1016500059F00E9431099FEF10160CF491E0899F18
:10166000802D11248093DE01112359F00E9431094D
:101670009FEF11160CF491E0899F802D1124809327
:10168000DF013091DE01332309F460CF2091DF01C7
:10169000222309F45BCF45EB3403C00111249923C5
:1016A00059F09093DE0145EB24039001112433237C
:1016B00039F03093DF014ACF81E08093DE01F3CF30
:1016C00081E08093DF0142CF86E0EAEDF1E0DF01C7
:1016D0001D928A95E9F71092D8011092D7011092C5
:1016E000D9010895EF92FF920F931F93CF93DF9349
:1016F000EB01E82FD11110C0442321F0F0E0E857AE
:10170000FC4FE4916E2F7E2F8E2FDF91CF911F9192
:101710000F91FF90EF9008950D2F10E0282F30E0EB
:10172000442329F028573C4FF901249130E0F6E09A
:10173000CF9FC0011124EFEFF0E0BF010E94F72B13
:10174000AB018C2F90E0880F991FA5E5A49FB001F5
:10175000A59F700D1124861B970B982F990F980F3A
:10176000BF01601B710B629FD001639FB00D729F20
:10177000B00D11248B2F9D9FB0011124672F772767
:10178000EF01C61BD70BBE01629FE001639FD00D26
:10179000729FD00D11247F01E91AF108E09EB0017B
:1017A000E19E700DF09E700D1124672F7727E61BC8
:1017B000F70BE29F8001E39F100DF29F100D1124A3
:1017C000E12F722F4230510599F048F4411551052F
:1017D00069F04130510581F0EB2F8D2F07C0443067
:1017E000510569F080F046305105B1F76E2F8DCF6D
:1017F000E22F7B2F812FFACFE22F7D2FF7CFEB2F18
:10180000822F712FF3CF7B2F822FED2FEFCF41E06F
:101810000C94720B08950C94070CCF93DF93762FE2
:10182000E901682F842F0E940B0C798368838A83D7
:10183000DF91CF91089580912D03982F9E7F29F4F9
:101840008170826080932D0308958635E8F381705E
:101850008465F8CF88E090E00C94E92CCF92DF9279
:10186000EF92FF926B017C010E941B0CB701A60155
:1018700088E090E0FF90EF90DF90CF900C94072DE0
:10188000EDE2F3E083E0808311828FEF8283838334
:10189000148260817181828193810C942E0C8091DD
:1018A0002D0380FF02C08695089580E008959091F1
:1018B0003103933018F49F5F90933103882351F0E4
:1018C00060912D0370912E0380912F03909130032E
:1018D0000C942E0C089581E00C94570C90913103D8
:1018E000992319F0915090933103882351F060911E
:1018F0002D0370912E0380912F03909130030C944F
:101900002E0C089581E00C946E0C70E00C9403157D
:101910006091100180912D0380FF0AC080910F011A
:1019200023E0829FC00111248E5C9C4F0C94850C97
:10193000809111019091120123E0829FF001112406
:10194000EE5CFC4F891750F71182108212828F5F74
:101950003396F8CF90912D0390FF14C09091110110
:101960002091120133E0939FF0011124EE5CFC4FB3
:10197000921710F00C94880C8183608342839F5FE0
:101980003396F6CF0895CF93DF9300D00F92CDB763
:10199000DEB790912D0390FF0AC09E012F5F3F4F4D
:1019A0000E940D0C4B8169818A810E94AA0C0F90C4
:1019B0000F900F90DF91CF910895CF93DF93EC01BB
:1019C000EC81F0E0ED57FD4F4491EDE2F3E06281F0
:1019D00081810E94C30C8C818F5F8C83DF91CF91BA
:1019E0000895CF93DF93EC01EDE2F3E04381628150
:1019F0008C810E94C30C8C818F5F8C83DF91CF918F
:101A000008950F931F93CF93DF9300D00F92CDB71C
:101A1000DEB78C018091E00181110AC09E012F5F29
:101A20003F4F4FEF6FEF0E940D0C8A818093E001D2
:101A3000F8016481613069F08091E00140E0662343
:101A400061F040E0623011F44091E00180E060E03C
:101A500004C06091E00140E080E00E94AA0CF8011F
:101A6000848190E0019663E070E00E940B2C8483F7
:101A70000F900F900F90DF91CF911F910F910895CC
:101A8000AF92BF92CF92DF92EF92FF920F931F938C
:101A9000CF93DF9300D00F92CDB7DEB7182FF62E7D
:101AA000042FE22E90912D0390FF29C0E92FE69597
:101AB000AE2FB0E0AF58BE4F8C9180933C029E7F1A
:101AC000923059F59E012F5F3F4F812F0E940D0CE0
:101AD0004B8169818A810E94AA0C10932E03F09297
:101AE0002F0300933003EE2051F060912D0370918D
:101AF0002E0380912F03909130030E942E0C0F90A3
:101B00000F900F90DF91CF911F910F91FF90EF9069
:101B1000DF90CF90BF90AF900895823019F400917C
:101B20003003DBCF863019F410912E03D6CF8930E5
:101B3000D9F3893191F6E9518E2F8170D82EE6952F
:101B4000F0E0ED57FC4FA590B490C12CBB24609100
:101B50001301C61618F00E94880CBFCF2C2D30E060
:101B6000A29EC001A39E900DB29E900D112470E024
:101B70000E94F72B812FD11013C0860F40911101C5
:101B8000420F532F511D9A01220F331F240F351F6F
:101B90002E5C3C4F402F6F2D0E940D0CC394D7CF6D
:101BA000861BECCFEDE2F3E09181282F4381628127
:101BB00088E0890F0C94400D81E00C94D20DEDE289
:101BC000F3E09181282F4381628188EF890F0C9483
:101BD000400D81E00C94DF0DEDE2F3E0628128E03E
:101BE000620F08F46FEF282F438181810C94400D20
:101BF00081E00C94EC0DEDE2F3E0628128E0621BE1
:101C000008F460E0282F438181810C94400D81E02D
:101C10000C94FB0DEDE2F3E0438128E0420F08F461
:101C20004FEF282F628181810C94400D81E00C944C
:101C30000A0EEDE2F3E0438128E0421B08F440E0A5
:101C4000282F628181810C94400D81E00C94190E43
:101C500020E00C94400DEF92FF921F93CF93DF93FF
:101C6000EC0110E0EE24EA94F12C609113011617B8
:101C700070F00E94880C9A818C8190FF27C08F5F42
:101C80008C83DF91CF911F91FF90EF900895209169
:101C90001101422F410F5527551FCA019A01220FEA
:101CA000331F280F391F2E5C3C4F70E0C7010E9484
:101CB0000B2C962F8C814091300360912F03199F3C
:101CC000800D11240E940D0C1F5FCFCF8150D8CF03
:101CD000BF92CF92DF92EF92FF920F931F93CF9319
:101CE000DF93FC0182810FEF80FF01E010E0809123
:101CF00013011817C0F00E94880C8091E201013096
:101D000009F051C0811102C080911301815080936C
:101D1000E201DF91CF911F910F91FF90EF90DF9043
:101D2000CF90BF900895C0911101C12ED12CCC0D40
:101D3000DD2DD11DCE01880F991FC80FD91FCE5C94
:101D4000DC4F198218821A8234E0E32EF12CB12C78
:101D50008091E2018B0D813104F18F70082E000C0F
:101D6000990BC816D90691F4809130038E9DA0017D
:101D70008F9D500D112455954795559547959E017A
:101D800060912F0380912E030E940D0CB00EF1E0A4
:101D9000EF1AF108E9F61F5FAACF87FFDFCF909116
:101DA0001301890FDBCF90E001966091130170E081
:101DB0000E940B2CACCF0F931F93CF93DF93809196
:101DC00011019091120123E0829FF0011124EE5C39
:101DD000FC4F891740F1C0E0D3E060911301C617B2
:101DE00040F10E94880C20910D018091E101820F49
:101DF0008093E10190910E01920F90930E011916BC
:101E000054F4082E000C990B409113014150550BCE
:101E1000841795071CF0219520930D01DF91CF9138
:101E20001F910F9108951182108212828F5F339655
:101E3000D0CF0C2F10E070E0C8010E940B2C209135
:101E40001101820F482F50E02091E101022E000C79
:101E5000330B02171307BCF020910E01022E000C69
:101E6000330B201731077CF08D9F900111242E5CDD
:101E70003C4F4091300360912F0380912E030E94CC
:101E80000D0CCF5FAACFFA01EE0FFF1FE40FF51F75
:101E9000EE5CFC4F118210821282F3CF8F929F92E0
:101EA000AF92BF92CF92DF92EF92FF920F931F9368
:101EB000CF93DF93EC014C81042F10E09801D801FF
:101EC0000E944F2C9B01AC010E94652C4B015C01D0
:101ED000E0E2F0E0E01BF10BA5E5B0E0AC019B0116
:101EE0000E94652C6B017C019F01DF010E94472C41
:101EF0009B01AC010E94702C9B01AC01280D391D87
:101F00004A1D5B1DC701B6010E941F2CF22E822FB5
:101F100090E039E23F1560F143E0249F90011124E5
:101F200035952795122F109500E085E5E82EEF18DE
:101F300080911301081758F10E94880C9C8181E060
:101F4000992319F0903219F48FEF80930C0180914E
:101F50000C01890F8C83DF91CF911F910F91FF901E
:101F6000EF90DF90CF90BF90AF909F908F900895AB
:101F700025E530E0B901681B790B9B01220F331F67
:101F8000260F371F37FFCCCF2F5F3F4FC9CF8E2D86
:101F900001FD8F2D20911101622F600F7727771F90
:101FA0009B01220F331F260F371F2E5C3C4F412F02
:101FB00060912F030E940D0C0F5FBACF0F931F93F8
:101FC000CF93DF93EC0110E000E0909113019017A4
:101FD000110609F06CF40E94880C8C8190E0019647
:101FE000817099278C83DF91CF911F910F91089574
:101FF00020911101A801420F511D9A01220F331F98
:10200000240F351F2E5C3C4F4C8160912F03809133
:102010002E0396959017110651F04CF0442349F089
:10202000409130030E940D0C0F5F1F4FCECF442311
:10203000B9F340E0F7CF4F925F926F927F928F9209
:102040009F92AF92BF92CF92DF92EF92FF920F9347
:102050001F93CF93DF93FC016280448081E08483EF
:10206000E3E8F2E07490E2E0F3E0E491812C75E0C3
:10207000972EF2E0CF2EDD24D394AA24AA94B12C7B
:1020800055245A94E7190E2F10E0809113018816F9
:1020900090F0DF91CF911F910F91FF90EF90DF9023
:1020A000CF90BF90AF909F908F907F906F905F90F8
:1020B0004F900C94880CE82CF12C82E0861568F087
:1020C0009E9CF0019F9CF00D1124ED51FE4F8091DC
:1020D0002E03808380912F038183411023C09E9C17
:1020E000F0019F9CF00D1124ED51FE4F13821282DE
:1020F00020911101C701820F911D9C01220F331FF6
:10210000280F391F2E5C3C4F9E9CF0019F9CF00DC8
:102110001124ED51FE4F4281618180810E940D0C9E
:102120008394B3CF9E9CE0019F9CD00D1124CD5190
:10213000DE4F8B818823E9F081508B83859DC00120
:1021400011246C8170E00E94F72BFB01FF27ED57F3
:10215000FD4F8491E82FE719E59DC0011124B801D6
:102160000E94F72B80913003689FB00111247A837D
:10217000BFCF0E94C42C20913003269521582C9D5E
:10218000A0012D9D500D1124452F5527841795072B
:102190000CF0AECF82E0861588F40E94C42CB50105
:1021A0000E940B2C88830E94C42C20912F0326951B
:1021B000622F70E00E940B2C280F29839E9CF00157
:1021C0009F9CF00D1124ED51FE4F1282809130033F
:1021D000893C58F088EC9E9CF0019F9CF00D1124E6
:1021E000ED51FE4F8483838383CF8431A0F784E154
:1021F000F2CFEDE2F3E080818E7F80836081718198
:10220000828193810E942E0C10923D022FEF80E775
:1022100092E0215080409040E1F700C000000C9413
:10222000880CEDE2F3E080818E7F808310923D0286
:102230002FEF80E792E0215080409040E1F700C00E
:1022400000000C94880C10923D0280913A0281119A
:102250000AC081E080933A0280912D0381708093BF
:1022600039020C941111089560912D03669570E068
:102270004BE050E084E191E00E94D42C892B19F4CA
:1022800081E080933D020E94A924909334028093C0
:102290003302089590912D0390FF35C09170811104
:1022A00028C0926090932D03662351F060912D0316
:1022B00070912E0380912F03909130030E942E0C79
:1022C00060912D03669570E04BE050E084E191E071
:1022D0000E94D42C892BA1F010923D0281E08093C2
:1022E00036024091300360912F0380912E030C94AD
:1022F000280E8B3210F09465D5CF880F982BD2CF53
:102300000E943411EBCF0895682F90912D0396957C
:1023100081E0890F8B3208F081E00C944A1181E052
:102320000C948411682F90912D0396958FEF890F4F
:1023300009F48AE20C944A1181E00C94921161E054
:102340000C944A11EDE2F3E08081816080838695F0
:102350000C949F1180912D0380FD0C94F9100C9426
:10236000A21160E00C944A1180913B0281112EC0B1
:102370000E94AA22811104C00E9459230E94400C8D
:102380000E942A0C60932D0370932E0380932F03D9
:10239000909330036E7F61F40E94400C0E942A0CDF
:1023A00060932D0370932E0380932F03909330033B
:1023B0000E941B0C10923D0280912D0380FF03C0F0
:1023C00086950E94B11181E080933B020895EDE271
:1023D000F3E080818160808386950C94B111109226
:1023E0003A028091390281110E94E7110C94341154
:1023F0000F931F93CF93DF9380913D02882309F4BD
:1024000096C080913C02E0912D03E695E81BE09395
:102410003502823091F5F0E0E158FD4FE491CE2F86
:10242000D0E00DED1CE080913602882361F010921F
:1024300036020E94A92490933402809333021092B2
:102440003802109237020E94A924E0913302F091E1
:1024500034028E1B9F0B8F3F9F4708F068C0EC0F24
:10246000FD1FF0933402E093330283E392E0F8011E
:10247000DF91CF911F910F910994863049F4F0E0DC
:10248000E458FD4FE491CE2FD0E001EF1CE0CBCF1C
:10249000893051F4E695F0E0E758FD4FE491CE2FF6
:1024A000D0E00BE21EE0BFCF8F3051F4E695F0E0B4
:1024B000EA58FD4FE491CE2FD0E008E61EE0B3CFFE
:1024C000853149F4F0E0ED58FD4FE491CE2FD0E096
:1024D0000BED1EE0A8CFC8E2D0E00EE41FE088318B
:1024E00009F4A1CF833239F4E1E7F2E0C591D49148
:1024F00001E01DE098CFC4EFD1E00EED1FE0843283
:1025000009F491CFC0EDD7E00AE01CE0853209F074
:102510008ACF8E2F63E00E94EB2BE92FF0E0E25987
:10252000FD4FE491CE2FD0E00BE110E17CCFDF91A5
:10253000CF911F910F910895FA01811101C0FB0104
:102540000994CF93DF93C82FD62F0E944F0C8C177E
:1025500040F00E944F0C8D1720F4DF91CF910C9426
:102560008F118C2FDF91CF910C949F111F93CF93DC
:10257000DF93EC01FB011281112309F4C2C00E9418
:10258000EB218272CD3CFCE5DF0709F4A0C008F026
:1025900044C0C73CECE5DE0709F485C0F0F4C43C58
:1025A0009CE5D90709F475C048F4C33CDC4509F43F
:1025B0006CC0812FDF91CF911F910895C53C9CE5A0
:1025C000D90709F46BC049EE5DE06CED7DE0C63CD7
:1025D000DC4579F70E949C125AC0CA3CFCE5DF0733
:1025E00009F46BC068F4C83CECE5DE0709F460C090
:1025F00048EF5DE067E07EE0C93CDC4559F3D9CFA8
:10260000CB3C9CE5D90709F45DC042E85CE06BE691
:102610007CE0CC3CDC45F1F2CCCFC23DFCE5DF07F1
:1026200009F464C098F4CF3C9CE5D90709F458C07C
:1026300008F452C0C03DFCE5DF0709F454C0C13DB9
:10264000DC4509F0B6CF6EE089E01CC0C53D9CE5D5
:10265000D90709F451C058F4C33DFCE5DF0709F47C
:1026600048C0C43DDC4509F0A4CF88E136C0C63D72
:102670009CE5D90709F443C06AE285E2CE35DD4521
:1026800009F097CF0E94A11202C00E94AA1110E087
:1026900090CF4CE951E16FE871E19CCF4FE851E1F7
:1026A0006CE971E197CF4CED5DE069EE7DE092CF92
:1026B00047E05EE068EF7DE08DCF45E25EE066E1F9
:1026C0007EE088CF46E15EE065E27EE083CF4BE6C8
:1026D0005CE062E87CE07ECF81E00E949F11D7CF72
:1026E00065E082E0CFCF68E086E0CCCF64E18FE0A8
:1026F000C9CF67E185E1C6CF62E289E1C3CF83E25A
:10270000ECCF11E056CF86E090E00C94E12C682FDE
:1027100086E090E00C94F52CE2E6F3E08081847092
:10272000896280830C9487130E94AA22811104C0BD
:102730000E9459230E948C130E948313809362038A
:10274000803320F0877088628093620390916203E7
:10275000892F817090FF04C0892F86958695869574
:102760000C94941480916203982F96959695969563
:10277000953040F49F5F990F990F990F8770892BBF
:1027800080936203809162038160809362030E9460
:102790008713809162038695869586950C94941490
:1027A00080916203982F987F79F08850809362031C
:1027B000887F91E009F490E08091620390FB80F9BA
:1027C000809362030E9487138091620386958695A9
:1027D00086950C9494148091620380FD13C08160EF
:1027E00080936203813019F489E0809362038091C1
:1027F00062030E9487138091620386958695869571
:102800000C94941408958091620380FF08C08E7F19
:10281000809362030E94871380E00C9494140895BF
:102820008091620380FD0C9403140C94EB1390913F
:102830006203892F8695869586958F5F8F71977035
:102840008630D8F4880F880F880F892B8093620315
:1028500080916203887F91E009F490E080916203A7
:1028600090FB80F9809362030E948713809162033A
:102870008695869586950C94941490936203E8CF80
:10288000863008F085E0909162039770282F220F20
:10289000220F220F922B90936203987F21E009F47C
:1028A00020E09091620320FB90F9909362030C94D6
:1028B00094140E944014809162030C9487139C012D
:1028C000FB018281882349F12E3BFCE53F07C9F0DB
:1028D00040F42C3BECE53E0769F02D3B3C4579F09C
:1028E0000895203C9CE5390791F070F0213C3C456F
:1028F00089F0089585E00E94591480E0089580E0F1
:10290000FACF0E94D013F9CF0E94B213F6CF0E94E3
:102910001014F3CF0E941714F0CF81E00895269A87
:102920002E9808952E980895CF92DF92EF92FF92FD
:10293000CF93C82F863040F5811127C08091800049
:102940008F7D809380000E9492142C2F30E0AFEF97
:10295000BFEF0E944F2C25E030E040E050E00E94A5
:102960001F2CC9012C3764E13607A8F469E070E038
:102970000E94F72B70938B0060938A00CF91FF9099
:10298000EF90DF90CF900895C5E080918000806245
:1029900080938000DACF2A50374D4F4F5F4F942FEE
:1029A000832F722F662725EF38E241E050E00E9426
:1029B0001F2C69017A01CA01B9010E94DB2B9B011E
:1029C000AC01C701B6010E94DB2B672F782F892F3E
:1029D00099276115710521E08207910559F66FEF7E
:1029E0007FEFC8CF08950E948F1482E28093800009
:1029F00089E1809381008FEF9FEF90938700809310
:102A000086000C9494136A9A4EB14B7F5EB1546069
:102A1000EFB7F8949B01220F331F260F371F280FA3
:102A2000391F2817390741F4EFBF8FE594E001976C
:102A3000F1F700C000000895DC016D91CD0178E050
:102A40005EB9000000C067FF4EB9660F000000C00D
:102A500000C000C04EB900C07A9591F7E2CF0F9345
:102A60001F93CF93DF93C42FD22FFC018281882341
:102A7000C9F0409340020E94A92490933F028093A2
:102A80003E0280E28C0F883008F050C0C77081E0B1
:102A900001C0880FCA95EAF7DF91CF911F910F917E
:102AA0000C94D21910914002141335C080913E024B
:102AB00090913F020E94C124883C910560F5C0E2DC
:102AC000CD0F1D17B9F080E2810F883040F41770E8
:102AD00081E001C0880F1A95EAF70E94D919C83021
:102AE00048F481E09D2F977001C0880F9A95EAF70E
:102AF0000E94D219802F0E94CA19C830B8F4D7702A
:102B000081E001C0880FDA95EAF7DF91CF911F913C
:102B10000F910C94D91980E28C0F883038F4C7706B
:102B200081E001C0880FCA95EAF7EFCFDF91CF911E
:102B30001F910F9108950F939C01CB01243F4CE509
:102B4000340759F1A8F4293DFCE53F0701F12A3D7E
:102B50004CE53407D1F1283D3C4591F406E221EEE5
:102B600041EE68ED7CE50E942F1580E00F910895FD
:102B7000263FFCE53F07E9F0B0F0273F3C45F9F080
:102B8000FC018281882339F110924002EFCF07E2E5
:102B900025EE45EE69ED7CE5E6CF06E221EE40EE5E
:102BA00064EF7CE5E0CF07E225EE44EE65EF7CE5DF
:102BB000DACF06E221EE42EE66EF7CE5D4CF07E203
:102BC00025EE46EE67EF7CE5CECF08E221E045EE4C
:102BD0006AED7CE5C8CF81E0C9CFCF93DF93EC01EC
:102BE000FB018281882309F419C1C230FCE5DF07AB
:102BF000C0F1C6319CE5D90730F09E012B5F3C4502
:102C00002930310570F50E94C722909318038093F4
:102C10001703C031ECE5DE0709F4CFC008F05BC054
:102C2000C8308CE5D80709F4B6C088F5C430ECE5A7
:102C3000DE0709F4A8C0C0F4C2308CE5D80709F457
:102C40009CC0809117038260C330DC4509F498C0B2
:102C500080911703909118030E94D5220E944B1C6B
:102C600080E0DF91CF910895809117038061C63095
:102C7000ECE5DE0709F484C0809117038860C73053
:102C8000DC4508F47DC080911703806279C0CC30A8
:102C90008CE5D80709F489C070F4809117038C6023
:102CA000CA30ECE5DE0709F46BC008F478C0809107
:102CB00017038E7F65C0CE308CE5D80709F479C044
:102CC000809117038B7FCF30DC4508F459C0809189
:102CD00017038F7E55C0CC3FECE5DE0709F457C0E3
:102CE00030F5C3318CE5D80709F46FC078F4C131F1
:102CF000ECE5DE0709F465C0C231DC4509F0A8CF78
:102D00000E944B1C809117038F773AC0C5318CE528
:102D1000D80709F462C008F476C080911803816076
:102D2000CB3FDC4509F094CF8093180391CFC115B8
:102D3000FDE5DF0709F44DC088F4809118038D7F0D
:102D4000CE3F9CE5D90781F3809118038E7FCF3F5A
:102D5000DC4550F3809118038360E6CFC230FDE577
:102D6000DF0709F459C008F444C080E0C330DD45F2
:102D700009F06ECF0E945B236BCF809117038160B7
:102D80008093170365CF809117038460F9CF8091FA
:102D900018038260C9CF809117038064F1CF0E942D
:102DA0004B1C809117038068EBCF809117038D7FB8
:102DB000E7CF80911703877FE3CF809117038F7D43
:102DC000DFCF809117038F7BDBCF80911703837F49
:102DD000D7CF809118038C7FA7CF8091170382FBF8
:102DE000992790F921E0922790FB82F990FB83F9D3
:102DF000C7CF80911803982F909591708E7F892B63
:102E000090FB81F991CF0E944B1C90911703892F61
:102E100097FB87F98058B4CF81E0ACCF81E021CF18
:102E2000CF93DF93EB0186319C4511F50E94EB2196
:102E30009A81992399F08A7A91E009F490E090932D
:102E40004102811109C089E20E94A5210E943B2212
:102E500080E0DF91CF91089585E3F6CF8091410224
:102E6000811104C089E20E94AC21F0CF85E3FBCF41
:102E700081E0EFCF90934702809346020895E0915E
:102E80004602F0914702309721F00190F081E02D49
:102E9000099480E00895E0914602F091470230974E
:102EA00099F020912B01222359F02091170327FF3D
:102EB00007C0DC012C9111962C93119725E02C93DF
:102EC0000280F381E02D09940895E0914602F0918B
:102ED0004702309739F022E0DC012C930480F58121
:102EE000E02D09940895209144023091450228175D
:102EF000390771F09093450280934402E0914602B5
:102F0000F0914702309721F00680F781E02D099477
:102F1000089520914202309143022817390771F039
:102F20009093430280934202E0914602F09147025F
:102F3000309721F00084F185E02D099408950E94D6
:102F4000B52460935702709358028093590290936E
:102F50005A026093530270935402809355029093E7
:102F60005602089585B7806885BF85B7806885BF9C
:102F70000895089508950C94B91708950C94BD17F9
:102F80000E94B21788EA92E20E9418250E94BA179E
:102F90000C94BB1781E008950C94CA170895089506
:102FA0000E94CE170C94CF170E94A0240E94DF0726
:102FB0000E9494130E94B4110C94BE178F929F929A
:102FC000AF92BF92CF92DF92EF92FF920F931F9337
:102FD000CF93DF93CDB7DEB72A970FB6F894DEBF55
:102FE0000FBECDBF0E942D0881110E949F1759E48A
:102FF000852E52E0952E10E000E0A02E802F0E943A
:10300000B6076C01F401E190F1904F01E816F90662
:1030100009F460C08091F30281FD0E94BF07C701DF
:103020008C259D25B12CEE24E394F12C9C012E21BE
:103030003F21232B09F448C00E94CC178823A9F014
:10304000BE82AF82CE20DF2081E0CD2809F480E06F
:1030500088870E94A9248160782F9A8789874E816A
:103060005F8168858A850E949418000F111FF801FE
:10307000E75BFD4F80819181E826F926F182E082AD
:103080000E94F8110E94F2140E94580A0E943F17F1
:10309000909148028917A9F10E943F178093480236
:1030A0002A960FB6F894DEBF0FBECDBFDF91CF9149
:1030B0001F910F91FF90EF90DF90CF90BF90AF9056
:1030C0009F908F900C941E04B394EE0CFF1CFFE0B5
:1030D000BF12ACCF0F5F1F4F0530110509F08DCF28
:1030E0008FEF89838A831B820E94A9248160782FB5
:1030F0009D838C8349815A816B818D810E949418B4
:10310000BFCF2A960FB6F894DEBF0FBECDBFDF91BA
:10311000CF911F910F91FF90EF90DF90CF90BF90D4
:10312000AF909F908F900895DF92EF92FF920F9350
:103130001F93CF93DF93CDB7DEB72B970FB6F894DD
:10314000DEBF0FBECDBF7A878B87F42E052F162FDB
:10315000E72ED82E61110E940B221E821D827E2D29
:10316000EC82DD824F2D502F612F8D2D9E812B966D
:103170000FB6F894DEBF0FBECDBFDF91CF911F9188
:103180000F91FF90EF90DF900C94C11EFC018081A5
:1031900091810C947721CF93C82F882309F48BC099
:1031A0008238C1F40E943F1781FD85C089E30E94E7
:1031B000A5210E943B222FEF81EE94E02150804018
:1031C0009040E1F700C0000089E30E94AC21CF915C
:1031D0000C943B228338A1F40E943F1780FD6BC002
:1031E00083E50E94A5210E943B222FEF81EE94E00F
:1031F000215080409040E1F700C0000083E5E5CF1A
:103200008438A1F40E943F1782FD55C087E40E94D4
:10321000A5210E943B222FEF81EE94E021508040B7
:103220009040E1F700C0000087E4CFCF8CEF8C0F17
:10323000813A90F46C2F80911F01909120010E949F
:103240007423882329F08C2F0E94AC210E943B22FA
:103250008C2F0E94A521BBCF80E28C0F883048F4D0
:10326000C77081E001C0880FCA95EAF70E94EE217D
:10327000AECFEBE5EC0FE33040F4F0E0E653FE4F69
:10328000808190E0CF910C947317E8E5EC0FE73163
:1032900050F4F0E0EE0FFF1FE456FE4F8081918165
:1032A000CF910C948917CD3E30F08C2F0E946A0983
:1032B000CF910C943D0ACF910895882309F452C010
:1032C000823871F40E943F1781FF4CC089E30E944D
:1032D000A5210E943B2289E30E94AC210C943B2251
:1032E000833859F40E943F1780FF3CC083E50E9459
:1032F000A5210E943B2283E5EFCF843859F40E9438
:103300003F1782FF2FC087E40E94A5210E943B2225
:1033100087E4E2CF9CEF980F913AF0F290E2980F99
:10332000983050F4877091E001C0990F8A95EAF7C0
:10333000892F0E94F421D2CF9BE5980F933020F47F
:1033400090E080E00C94731798E5980F973120F483
:1033500090E080E00C9489178D3E20F00E94C40913
:103360000C943D0A08951F93CF93DF93182FEB0120
:103370000E94CB18209731F4812FDF91CF911F91BC
:103380000C945D198FE99FE00197F1F700C00000F0
:103390002197F0CF70E060E0893311F460E570E0D0
:1033A0000C94B319882321F00E94EE210C943B2247
:1033B0000895882321F00E94F4210C943B22089563
:1033C000BF92CF92DF92EF92FF920F931F93CF9312
:1033D000DF936C01D62FC72FFC0112810581029566
:1033E0000F700E94C321E82E8823A1F0E12E112343
:1033F00089F08C2F807F803429F080E28D0FE12CC2
:10340000883040F082E00E948C220E94C32191E02B
:10341000E82EE926BC2EB2949FE0B922EB2DF0E015
:10342000E65BF24D0C94412C0C2F0F70C07F11F015
:103430000295007F1123A9F0002359F080E28D0F3F
:10344000883010F0D11109C0802F0E94EE210E9417
:103450003B228D2F0E94CB1814C0802F0E94FE218A
:10346000F6CF8D2F0E945D19002359F080E28D0F59
:10347000883010F0D1112CC0802F0E94F4210E94BE
:103480003B222B2D2850330B2430310520F40E9491
:103490003F170E941E04EE2009F49EC10E94BF2126
:1034A00080FD9AC1F60112820E94B9210E94452036
:1034B000C6010E940D1C0E94B921DF91CF911F917E
:1034C0000F91FF90EF90DF90CF90BF900C9466200B
:1034D000802F0E940422D3CFFC2FFF70FF2EC07FCD
:1034E000C03219F0F29480EFF822DD2369F0D13078
:1034F00049F1112391F1002351F1F601858180FFFB
:10350000A8CF8F70858323C0112381F0011106C0DD
:103510000E941E228F290E94D219B3CF0130C1F719
:103520000E941E228F290E942422ABCF011106C0C7
:103530000E9431228F2D0E94D919A3CF013009F4A6
:10354000A0CFF6CF112329F0063008F09ACF8F2DA7
:10355000E2CF053008F095CFEDCF002359F3D933F2
:1035600049F4FFEF27EE33E0F15020403040E1F71F
:1035700000C000008D2F0E945D1983CF8C2F86958F
:103580008695837069F0813009F07BCF8D2F9C2F59
:103590009370111102C090E080E00E94891771CFF2
:1035A0008D2F9C2F9370111102C090E080E00E943B
:1035B000731767CF8D2F112329F00E946A090E948B
:1035C0003D0A5FCF0E94C409FACF8C2F837009F0A7
:1035D00041C0111156CF4D2F429546954770440F6B
:1035E000440F0D2F0F7010E030E020E0042E04C0D7
:1035F000000F111F221F331F0A94D2F760E070E002
:10360000CB01D4FF0FC06FE070E080E090E004C019
:10361000660F771F881F991F4A95D2F7609570959E
:1036200080959095C695C695C370602B712B822BA3
:10363000932BC23049F058F4C13019F00E94F71FA3
:1036400020CF0E94E51F1DCF0E9409201ACF0E94A3
:10365000E31F17CF8695112311F08C2F81708823DB
:1036600009F40FCF4D2F429546954770440F440FF4
:103670000D2F0F7010E030E020E0042E04C0000F8A
:10368000111F221F331F0A94D2F760E070E0CB01B4
:10369000D4FF0FC06FE070E080E090E004C0660FE0
:1036A000771F881F991F4A95D2F76095709580956E
:1036B0009095C695C695C370602B712B822B932B6A
:1036C000C23049F058F4C13019F00E94BC20D9CE64
:1036D0000E94AA20D6CE0E94CE20D3CE0E941F20C8
:1036E000D0CECF70112329F08C2F0E9445208D2F32
:1036F00012CF8D2F0E94D9198C2F0E946620C1CE27
:10370000D23F89F160F4D03FC9F0D13F29F11123B4
:1037100009F442C001119DCE8C2F8F7121C0D33F7F
:1037200039F1D43FA1F7112369F1CF718C2F0E9499
:10373000452063E08C2F0E947122A3CE112341F01B
:10374000053008F09ECE8C2F8F710E94892099CE73
:10375000063008F096CEF7CF8C2F8F71112369F2C7
:103760000E9445208ECE8C2F8F711123C9F3C5CFB7
:10377000112329F08C2F8F710E94302082CE0E945D
:103780002B207FCE81E00E948C22023008F479CE7B
:1037900082E00E948C2275CE002359F0D93309F0C3
:1037A000E9CE8FEF97EEE3E081509040E040E1F703
:1037B000DFCE8C2F8F71A1CF4C2F4F706D2FC60194
:1037C0000E9426040E945B1F5CCE4C2F4F706D2F11
:1037D000C6010E94290455CEDF91CF911F910F9110
:1037E000FF90EF90DF90CF90BF9008950F931F93BD
:1037F000CF93DF93EC01688179818A810E948121D6
:103800008C010E94E0200E94E21FB801CE01DF91EE
:10381000CF911F910F910C94E019CF93DF93EC019E
:103820008B819C81892B29F08881998189238F3F05
:1038300059F4DF91CF910895CE010E94F61BCE017D
:10384000DF91CF910C948503CE010E94AA038111D0
:10385000F3CF0E94C321882361F38A81882349F32F
:1038600082E0DF91CF910C948C2290E080E00E9466
:10387000731790E080E00E9489170E940B220E943B
:103880001B220E943B220E94640B0C943D0A0E9462
:10389000B3210C94351C0E94FB210C94471CE92F8A
:1038A000E295EF70E250EE3070F4F0E0E65AF24D3F
:1038B0000C94412C803F19F020F4883E20F481E0E4
:1038C0000895843FE1F380E00895883EC0F3813F8E
:1038D000D1F7F5CF93FB882780F908950E947721CF
:1038E0000C944F1CCF93DF9300D000D00F92CDB734
:1038F000DEB70F900F900F900F900F90DF91CF9148
:103900000895CF93DF9300D000D000D0CDB7DEB7BD
:1039100026960FB6F894DEBF0FBECDBFDF91CF91D4
:1039200008951F93CF93DF93C0915C0216E08091BE
:103930005D028C1304C0DF91CF911F910895D0E0F8
:103940001C9FF0011D9FF00D1124E25AFD4F408194
:10395000518162817381848195810E94811C2196AD
:10396000C770E5CF40918E0250918F026091900216
:103970007091910280919202909193020C94811C1B
:103980001F93CF93DF9380919302807FA9F480915E
:103990009002882389F080915C02C0915D02609161
:1039A0008E0270918F02A0919102B0919202D62F57
:1039B000D72316E0C81304C0DF91CF911F9108955B
:1039C00090E0109711F0DF3F19F401968770F2CF65
:1039D000189F9001199F300D1124F901E25AFD4FF3
:1039E00041814713F2CF40814613EFCF428141110D
:1039F000ECCF438154814A1B5B0B483C510528F7AF
:103A0000809193028F70806180939302F901ED5948
:103A1000FD4F80818F70806180838EE892E00E94EC
:103A20000D1CDF91CF911F910C94911CAF92BF920E
:103A3000CF92DF92EF92FF920F931F93CF93DF937A
:103A4000CDB7DEB761970FB6F894DEBF0FBECDBF1E
:103A50008C0185E0F801DE011D9601900D928A959A
:103A6000E1F7F80140815181E2808EE8C82E82E0C2
:103A7000D82E60919102709192026115710509F43E
:103A800061C190918E0220918F02892F82238F3FF6
:103A900009F458C1A380B480F0909002F501E61BB0
:103AA000F70BFF2009F4FCC080919302382F307F80
:103AB000E83CF10508F0B2C0311179C0FE2C2513A5
:103AC00023C0941321C0E1101FC08F7080618093C8
:103AD00093020E94B21CC6010E940D1C80919302A9
:103AE000F80185838F2D61960FB6F894DEBF0FBE67
:103AF000CDBFDF91CF911F910F91FF90EF90DF909D
:103B0000CF90BF90AF900895AB2829F0842F8523E4
:103B10008F3F09F033C180E0F82FF170DF2E80FF76
:103B20003CC080915C0220915D0236E0821315C09A
:103B30004D875E878D859E850E947721292F22954E
:103B40002F702230F0F0243018F59F70F1F0F8015A
:103B50009581907FD1F4D12C1EC090E0389FF00168
:103B6000399FF00D1124E25AFD4F6181651306C0A3
:103B70006081641303C062816E110FC0019687706B
:103B8000D5CF9F7011F0882331F3805E883018F311
:103B9000C8010E940D1CFD2CA5CFEE2009F4A2CF78
:103BA00080919302816080939302F12C9BCF251327
:103BB00006C0941304C0F801EE2009F48DC04D87AF
:103BC0005E878D859E850E946E1C882319F1EE20EC
:103BD00009F180919302803270F020918E02309131
:103BE0008F0238872F831986BB86AA868C87CE01E1
:103BF00007960E940D1C86E0F801AEE8B2E0019045
:103C00000D928A95E1F70E94C01C0E94B21CFF240D
:103C1000F39468CFC8010E940D1CF9CF311113C075
:103C20007A2DB98AA88A6E2D89890E94721C8EE825
:103C300092E00E940D1C86E0F60111928A95E9F748
:103C40000E94B21CB2CF25130FC094130DC0E11017
:103C50000BC0F8018583C8010E940D1C86E0F601A7
:103C600011928A95E9F73ECF4D875E878D859E85B7
:103C70000E946E1C882371F2EE2061F28091930203
:103C8000803208F4B8CF20918E0230918F023A83AF
:103C900029831B82BD82AC828E83CE010196A9CF7F
:103CA000E83CF10508F041C0FE2CEE2009F4B2CF4B
:103CB00025132AC0941328C08091930280FD1BC055
:103CC000982F907FC1F0F8018583903F31F0982FB5
:103CD000907F905F8F70892B8583C8010E940D1C97
:103CE00086E0F801AEE8B2E001900D928A95E1F726
:103CF0000E94B21CF7CE86E0F801AEE8B2E0019077
:103D00000D928A95E1F7EECE4D875E878D859E8573
:103D10000E946E1C81116FCF80919302816080930D
:103D20009302C8010E940D1CDDCE7A2DB98AA88AA3
:103D30006E2D89890E94721C86E0F60111928A9587
:103D4000E9F7D6CFEE2009F465CF4D875E878D85E4
:103D50009E850E946E1CF82E882309F45BCF86E0B6
:103D6000F801AEE8B2E001900D928A95E1F78EE895
:103D700092E00E94C6180E94C01CBACF81E08E2536
:103D8000CBCE1F93CF93DF93CDB7DEB72C970FB673
:103D9000F894DEBF0FBECDBF4F83588769877A87FF
:103DA0008B879C87CE0107960E94161D882369F099
:103DB0008A859B85892B39F04F815885842F8523EF
:103DC0008F3F09F071C016E05FC086E0FE013796B4
:103DD000DE01119601900D928A95E1F78A859B8507
:103DE000892B89F38F81988589238F3F61F32091F7
:103DF0005D0230E0C90101968770992740915C020D
:103E00004817190671F40E944B1C10925D02109223
:103E10005C0286E0EEE8F2E0DF011D928A95E9F7A8
:103E2000D2CF96E0929FD001939FB00D1124A25A59
:103E3000BD4FFE01319601900D929A95E1F7809366
:103E40005D020E94911CBFCF819FC0011124825A44
:103E50009D4F0E94161D8823E9F0E0915C021E9F91
:103E6000F0011124E25AFD4F40815181628173813A
:103E7000848195810E94811C80915C0290E0019672
:103E80008770992780935C0280915C0290915D021B
:103E90008913DACF2C960FB6F894DEBF0FBECDBFD4
:103EA000DF91CF911F91089569857A858B859C85D7
:103EB0000E94811C88CFEF92FF920F931F93CF93A4
:103EC000DF938C01892B81F0F12CEE24E394E8013F
:103ED0002196F8018491843770F4843008F05FC033
:103EE0008130B1F08230A1F1DF91CF911F910F911C
:103EF000FF90EF900895853709F44CC008F43DC059
:103F00009CE7980F903780F78F770E945D1949C022
:103F10000E5F1F4FFE01849190E2980F983060F47D
:103F20008770FE2D01C0FF0F8A95EAF78F2F0E9440
:103F30000E220E943B2202C00E94CB188F2D81507E
:103F400030F2EFE9FFE03197F1F700C00000F7CF62
:103F50000E5F1F4FFE01849190E2980F983050F44D
:103F60008770FE2D01C0FF0F8A95EAF78F2F0E9400
:103F70001422DFCF0E945D19E1CF0E5F1F4FFE01BB
:103F8000C491C150D8F28FE99FE00197F1F700C0CA
:103F90000000F7CF0E5F1F4FFE01F490CFCF0E94BD
:103FA000CB188E01CBCF08950C94D31F0E94D41F41
:103FB0006093CA027093CB028093CC029093CD029F
:103FC0000C94351C08950C94D61F0F931F930091E9
:103FD000CA021091CB022091CC023091CD02602B0D
:103FE000712B822B932B1F910F910C94D61F0F9343
:103FF0001F930091CA021091CB022091CC02309104
:10400000CD0260237123822393231F910F910C947F
:10401000D61F0F931F930091CA021091CB022091DB
:10402000CC023091CD0260277127822793271F9100
:104030000F910C94D61F0C94D31F0C941B200E943C
:104040001D206093C6027093C7028093C8029093AC
:10405000C9020C94351C60E070E0CB010C941F2069
:104060000F931F9341E050E060E070E08A019B01F4
:1040700004C0000F111F221F331F8A95D2F7C901F8
:10408000B8011F910F910C941F200F931F9341E0D3
:1040900050E060E070E004C0440F551F661F771FBA
:1040A0008A95D2F78091C6029091C702A091C8026A
:1040B000B091C9028A019B01082B192B2A2B3B2B9B
:1040C000C901B8011F910F910C941F200F931F93EA
:1040D00041E050E060E070E004C0440F551F661FEF
:1040E000771F8A95D2F7CB01BA01609570958095BC
:1040F00090950091C6021091C7022091C80230919C
:10410000C90260237123822393231F910F910C9482
:104110001F200F931F9341E050E060E070E004C067
:10412000440F551F661F771F8A95D2F78091C602EC
:104130009091C702A091C802B091C9028A019B0167
:10414000082719272A273B27C901B8011F910F917A
:104150000C941F200F931F930091C6021091C70269
:104160002091C8023091C902602B712B822B932BB6
:104170001F910F910C941F200F931F930091C60263
:104180001091C7022091C8023091C90260237123A7
:10419000822393231F910F910C941F200F931F9341
:1041A0000091C6021091C7022091C8023091C90245
:1041B00060277127822793271F910F910C941F204E
:1041C00008952FE0929F800D1124982F977041E061
:1041D00001C0440F9A95EAF786958695869595E0F5
:1041E000899FF0011124EC56FD4F90E080E070E0D3
:1041F0005191DF0111979B01082E02C0369527953A
:104200000A94E2F7217021952527242325272C9352
:1042100001968530910561F708952FE0929F800DFA
:104220001124982F977086958695869525E0829F14
:10423000F0011124EC56FD4F50E040E080E0219168
:1042400030E0092E02C0369527950A94E2F72170D6
:104250003327042E01C0220F0A94EAF7822B4F5F06
:104260005F4F4530510559F70895BF92CF92DF92C5
:10427000EF92FF920F931F93CF93DF938C01C09027
:10428000C602D090C702E090C802F090C9028091A7
:10429000CA029091CB02A091CC02B091CD02C82A63
:1042A000D92AEA2AFB2ACFE1D0E0BC2ED701C601E9
:1042B0000C2E04C0B695A795979587950A94D2F7CA
:1042C00080FD0EC0219788F7B12C8B2DDF91CF9107
:1042D0001F910F91FF90EF90DF90CF90BF900895C6
:1042E000B8018C2F0E944604019761F3EECFCF9363
:1042F000DF93EC010E943521BE01DF91CF910C9438
:1043000046041F93CF93DF93EB0190915B029923B7
:1043100031F0CB01DF91CF911F910C94772188234D
:1043200079F0CB010E943521182F682FCE010E9411
:10433000E120BE01812FDF91CF911F910C944604A3
:10434000CB010E940D21182FF4CF682F80911F01FF
:10435000909120010C94F423682F80911F0190917B
:1043600020010C94FF2380911F01909120010C9457
:104370000A248091CE028595859585950895809132
:10438000CE02877008959091CE02977081E009F473
:1043900080E008959091180392FB222720F92817B6
:1043A00051F080FB92F9909318038091170390913C
:1043B00018030C94D52208958091180382FB882756
:1043C00080F991E089270C94CA2181E00C94CA21DC
:1043D00080E00C94CA218091F20208959091F2023B
:1043E000892B8093F202089580959091F202982390
:1043F0009093F20208951092F20208959091F102C2
:10440000892B8093F102089580959091F102982371
:104410009093F10208951092F10208959091F002A4
:10442000892B8093F002089580959091F002982353
:104430009093F00208951092F00208958091CF02B7
:10444000089508950C9421229091180392FD08C0BC
:104450009091CF02981721F08093CF020C942222E2
:1044600008958091CF02882329F01092CF0280E036
:104470000C9422220895E0911F01F0912001809177
:10448000F2028083E0911F01F091200180819091E0
:10449000F102892B8083E0911F01F091200180813E
:1044A0009091F002892B80839091CF02992381F023
:1044B000E0911F01F09120018081892B8083809100
:1044C0001F01909120010E94602381110E943122DE
:1044D00080911F01909120010C944B1708950C942A
:1044E0006E229091180392FD10C098E0899F900170
:1044F0001124622B6093CE020E9445208091CE024F
:104500008595859585950C946F220C944520109285
:10451000CE0280E00C946F229091CE028095892388
:104520008093CE02282F277039F4282F082E000CF4
:10453000330B9217130621F49091180392FF07C0D2
:104540008595859585950E9466200C94872208950F
:1045500080E0089590E080E00E94EF2C21E08A3E08
:104560009E4F09F020E0822F089582E090E00C94A5
:10457000E12C682F82E090E00C94F52C83E090E031
:104580000C94E12C682F83E090E00C94F52CCF93F1
:1045900084E090E00E94E12CC82F82E290E00E942B
:1045A000E12C982F8C2FCF910895CF93C92F682F8E
:1045B00084E090E00E94F52C6C2F82E290E0CF9195
:1045C0000C94F52CAB01BC018FE090E00C94072D0E
:1045D000AB01BC0183E190E00C94072D60E070E03A
:1045E000CB010C94E82260E070E0CB010E94E22253
:1045F0000C94EE226AEE7EEF90E080E00E94132D94
:1046000060E082E090E00E94F52C60E083E090E0C2
:104610000E94F52C1092CA021092CB021092CC028A
:104620001092CD0260E084E090E00E94F52C60E002
:1046300082E290E00E94F52C60E085E090E00E942C
:10464000F52C60E086E090E00E94F52C6FEF87E0AB
:1046500090E00E94F52C40E050E0BA0188E090E044
:104660000E94072D60E08DE090E00E94F52C40E074
:1046700050E0BA0188E190E00E94072D60E087E1F8
:1046800090E00E94F52C40E050E0BA018CE190E00F
:104690000E94072D70E060E080E290E00E94132D00
:1046A00040E050E0BA0188E190E00E94072D0C94B0
:1046B000F3220C94FA22682F8EE090E00C94F52CF3
:1046C000FC01329680912B01882321F08091170301
:1046D0009EE187FF96E080E0915008F408952191D3
:1046E0002223D1F38F5FF8CF662301F120912B01B4
:1046F0002223F1F02091170327FF1AC0462F469579
:10470000469546954E3190F4677021E030E002C046
:10471000220F331F6A95E2F7840F911DFC018281FD
:1047200090E02823392381E0232B69F480E0089569
:10473000FC01329608962191261721F0E817F90717
:10474000D1F7F4CF81E008959C01FC0132969FEFF0
:1047500080E04191461751F09F3F19F4411101C08B
:10476000982F8F5F8630A9F79F3F09F40895290F8E
:10477000311D97FD3A95F90162830895FC01329647
:1047800008962191261303C0DF0111971C92E817A8
:10479000F907B9F70895E62FE695E695E695EE3127
:1047A00068F4E80FF92FF11D677021E030E001C0D7
:1047B000220F6A95EAF78281822B82830895E62F81
:1047C000E695E695E695EE3170F4E80FF92FF11DC8
:1047D000677021E030E001C0220F6A95EAF720956A
:1047E000828128232283089520912B01222329F0FE
:1047F0002091170327FD0C94CB230C94A423209124
:104800002B01222329F02091170327FD0C94DF238D
:104810000C94BE23FC01329680912B01882351F029
:104820008091170387FF06C08EE1DF011D928A95F4
:10483000E9F7089586E0F9CF089508950C941D24B2
:1048400080916B03843009F42EC00E941E2480E006
:104850000E94941480E00E941E040E942311109272
:10486000F40288E190E020E40FB6F894A8958093D4
:1048700060000FBE2093600083B7817F846083BF98
:1048800083B7816083BF7894889583B78E7F83BF19
:104890000FB6F894A89580916000886180936000BD
:1048A000109260000FBE08950895CF930E941C24BB
:1048B0000E942D080E945424C0E08C2F0E94B6074D
:1048C000892B31F4CF5FC530C1F780E0CF910895D7
:1048D00081E0FCCF08950C946A240E944B1C0E9436
:1048E00094130E943F170E941E040E94EF110C9423
:1048F0006B241F921FB61F9211248F939F93AF9327
:10490000BF938091F402811113C080916303909151
:104910006403A0916503B09166034196A11DB11D8A
:104920008093630390936403A0936503B09366033D
:10493000BF91AF919F918F911F901FBE1F901895AF
:1049400082E084BD93E095BD9AEF97BD80936E00A1
:1049500008952FB7F8948091630390916403A09118
:104960006503B09166032FBF08952FB7F894609147
:1049700063037091640380916503909166032FBF78
:1049800008959C014FB7F89480916303909164035C
:10499000A0916503B09166034FBF821B930B0895EE
:1049A00078941F921FB61F9211248F939F93AF93F9
:1049B000BF938091630390916403A0916503B091CC
:1049C00066030196A11DB11D809363039093640358
:1049D000A0936503B0936603BF91AF919F918F91B0
:1049E0001F901FBE1F90189581E08093E00080E229
:1049F0008093D8001092C9008FE19EE40197F1F7EF
:104A000000C0000087E090EBDC018093740390937A
:104A10007503A0937603B093770388E19CE00FB60B
:104A2000F894A895809360000FBE90936000FFCF2C
:104A30009093CF018093CE0108958091150308953E
:104A4000CF93DF9300D00F92CDB7DEB790916B0379
:104A5000943019F589837B836A8382E08093E9002F
:104A60008FEF9091E800815095FD06C095ED9A95E5
:104A7000F1F700008111F5CF8091E80085FF0DC0AE
:104A800050E040E063E070E0CE0101960E944A27CA
:104A90008091E8008E778093E8000F900F900F9040
:104AA000DF91CF910895BC0184E00C942025BC01D6
:104AB00083E00C9420259C0182E08093E9009FEF25
:104AC0008091E800915085FD06C085ED8A95F1F74B
:104AD00000009111F5CF8091E80085FF0CC050E0F7
:104AE00040E066E070E0C9010E944A278091E8003A
:104AF0008E778093E8000895CF93DF93EC01809147
:104B00002B018823B1F18091170387FF32C060E247
:104B100082E08093E9008FEF9091E800815095FD4D
:104B200006C095ED9A95F1F700008111F5CF8091BF
:104B3000E80085FF1BC080912B0170E050E040E051
:104B4000811104C050E040E068E070E0CE010E94B6
:104B50004A278091E8008E778093E80080E2FE018A
:104B6000A5EFB2E001900D928A95E1F7DF91CF9128
:104B7000089568E081E0CDCF80916A03811109C07A
:104B80000E94DA280E9437298091E2008460809395
:104B9000E200089510926A03089508950895089513
:104BA00042E061EC81E00E94562842E261EC82E042
:104BB0000C94562880916D03833009F45FC030F463
:104BC0008130C1F1823009F49BC008958A3009F424
:104BD00087C08B3009F46DC0893009F04EC08091D8
:104BE0006C03813209F049C0809170039091710388
:104BF000029708F042C08091E800877F8093E80028
:104C00008091E80082FF35C09091F3008091F2001E
:104C1000029729F48091F1008B7F813021F48091FB
:104C2000F100809315038091E8008B778093E80072
:104C30000C948A2880916C03813AF9F48091E80001
:104C4000877F8093E8008091700390917103892B96
:104C500061F460E285EF92E070E00E949927809114
:104C6000E8008B778093E800089560E090E080E0B2
:104C7000F3CF80916B038111C3CF089580916C03B2
:104C8000813AD9F78091700390917103892BA9F72C
:104C90008091E800877F8093E8008091E80080FFA2
:104CA000FCCF80912B018093F1008091E8008E77FA
:104CB000BDCF80916C03813201F780917003909198
:104CC0007103892BD1F68091E800877F8093E800FB
:104CD0000E948A2880916E0380932B010C944B1CB8
:104CE00080916C03813249F68091E800877F809340
:104CF000E8000E948A2880916F038093160308952C
:104D000080916C03813A09F0B8CF8091E800877FE9
:104D10008093E8008091E80080FFFCCF809116032B
:104D2000C2CF84B7877F84BF0FB6F894A8958091CF
:104D30006000886180936000109260000FBE80E880
:104D400090E00FB6F89480936100909361000FBEDD
:104D50000E94C0170E94DA280E9437298091E20041
:104D600084608093E20078940E94C02B0E94D41744
:104D700081E291E00E943A1780916B03853099F0AF
:104D80000E94DE170E94D017F7CF0E942024809146
:104D90006903882341F00E945524882321F00E9452
:104DA00034270E944B1C80916B03853071F30E9465
:104DB0006D24E6CF0C94DC26292F332723303105D0
:104DC00019F168F42130310509F444C0223031056D
:104DD00009F445C090E080E030E020E025C02132B9
:104DE000310549F122323105A9F780E490E02DEA3E
:104DF00035E061157105C1F086EB90E027EF34E0F6
:104E00006130710589F0E6CF99278130910581F0F5
:104E1000009729F00297F1F6E8E8F4E002C0E6EA2C
:104E2000F4E0849190E09F01FA013183208308959A
:104E3000E4E9F4E0F6CF89E090E02CEB34E0611592
:104E4000710591F389E090E025ED34E06130710562
:104E500059F3C0CF82E190E025EE34E0E5CF8BE35B
:104E600090E02AEA34E0E0CF80E189BD82E189BDAB
:104E700009B400FEFDCF8091D8008F7D8093D800CB
:104E80008091E00082608093E0008091E00081FDED
:104E9000FCCF0895AF92BF92CF92DF92FF920F9313
:104EA0001F93CF93DF936C01EB018A010E94A92825
:104EB000F82E811123C00115110539F0F801808108
:104EC0009181C81BD90BC80ED91EB12CA12C2097DB
:104ED000A9F08091E80085FD22C08091E8008E77DE
:104EE0008093E80001151105A1F0F80180819181FE
:104EF000A80EB91EB182A08285E0F82E8F2DDF9119
:104F0000CF911F910F91FF90DF90CF90BF90AF9006
:104F100008950E94A9288823D1F2F82EEFCFF60138
:104F200081916F018093F1002197FFEFAF1ABF0AC3
:104F3000CECFFC018091720390917303861797077F
:104F4000A0F06115710529F49091E8009E77909387
:104F5000E80090E06115710551F4911108C080914D
:104F6000E80082FF34C080E00895BC01F2CF809158
:104F70006B038823C1F18530C1F18091E80083FD86
:104F800030C08091E80082FDEACF8091E80080FF88
:104F9000E1CF8091F3002091F200382F6115710567
:104FA00019F02830310558F091E02830310509F02A
:104FB00090E02091E8002E772093E800CBCF8191FC
:104FC0008093F100615071092F5F3F4FE7CF8091CF
:104FD0006B03882341F0853041F08091E80083FF26
:104FE000BECF81E0089582E0089583E00895FC013A
:104FF000809172039091730386179707A0F0611553
:10500000710529F48091E8008E778093E80090E0A4
:105010006115710551F4911108C08091E80082FF7B
:1050200035C080E00895BC01F2CF80916B038823E6
:10503000C9F18530C9F18091E80083FD31C08091CC
:10504000E80082FDEACF8091E80080FFE1CF809107
:10505000F3002091F200382F6115710519F0283006
:10506000310558F091E02830310509F090E0809149
:10507000E8008E778093E800CBCF84918093F10095
:105080003196615071092F5F3F4FE6CF80916B03DE
:10509000882341F0853041F08091E80083FFBDCF47
:1050A00081E0089582E0089583E00895982F973075
:1050B00028F08F708093E90081E008959093E900D3
:1050C000242F762F50E0981731F07091EC0020914A
:1050D000ED005091F00021FD02C09F5FE8CF3091BC
:1050E000EB003E7F3093EB003091ED003D7F30933D
:1050F000ED003091EB0031603093EB007093EC00E9
:105100002093ED005093F0002091EE0027FDE5CFB5
:1051100080E0089580916C0387FF13C08091E800C0
:1051200082FF06C08091E8008B778093E80004C07E
:1051300080916B038111F2CF089580916B038823D6
:10514000D9F38091E80080FFF8CF8091E8008E7756
:10515000ECCF2091E4003091E50095E6A901209183
:10516000EC00822F817020FF06C08091E80080FF54
:1051700006C080E008952091E80022FD1AC08091C9
:105180006B03882389F0853089F08091EB0085FDE1
:105190000FC02091E4003091E50042175307F9F267
:1051A0009150E1F684E0089582E0089583E0089547
:1051B00081E008950E9448290E945029E0EEF0E025
:1051C000808181608083E8EDF0E080818F7780834B
:1051D00019BCA7EDB0E08C918E7F8C9380818F7E7F
:1051E000808310926A0308950F931F93CF93DF93E8
:1051F0000E9448290E945029C8EDD0E088818F770D
:10520000888388818068888388818F7D888319BCA2
:1052100010926B0310926703109269031092680357
:1052200000EE10E0F80180818B7F808388818160AF
:10523000888342E060E080E00E945628E1EEF0E0E2
:1052400080818E7F8083E2EEF0E0808181608083C8
:10525000808188608083F80180818E7F808388814F
:1052600080618883DF91CF911F910F910895E8EDC0
:10527000F0E080818F7E8083E7EDF0E080818160C7
:10528000808384E082BF81E080936A030C94F428D9
:10529000E8EDF0E080818E7F80831092E200089537
:1052A0001092DA001092E10008951F920F920FB64B
:1052B0000F9211242F933F934F935F936F937F939C
:1052C0008F939F93AF93BF93EF93FF938091E100F0
:1052D00082FF0BC08091E20082FF07C08091E10055
:1052E0008B7F8093E1000E94BF2B8091DA0080FFCA
:1052F00019C08091D80080FF15C08091DA008E7FA0
:105300008093DA008091D90080FF96C080E189BD4A
:1053100082E189BD09B400FEFDCF81E080936B037B
:105320000E94BC258091E10080FF19C08091E200BD
:1053300080FF15C08091E2008E7F8093E200809113
:10534000E20080618093E2008091D80080628093C7
:10535000D80019BC85E080936B030E94CE25809114
:10536000E10084FF2BC08091E20084FF27C080E130
:1053700089BD82E189BD89B5982F917080FFFBCFEF
:105380008091D8008F7D8093D8008091E1008F7E3E
:105390008093E1008091E2008F7E8093E200809113
:1053A000E20081608093E20080916703882309F422
:1053B00049C084E080936B030E94CF258091E10077
:1053C00083FF29C08091E20083FF25C08091E10026
:1053D000877F8093E10082E080936B0310926703E4
:1053E0008091E1008E7F8093E1008091E2008E7FCA
:1053F0008093E2008091E20080618093E20042E0CD
:1054000060E080E00E9456288091F00088608093E0
:10541000F0000E94CD25FF91EF91BF91AF919F9138
:105420008F917F916F915F914F913F912F910F904D
:105430000FBE0F901F90189519BC10926B030E941D
:10544000CA2570CF8091E30087FD93E090936B03B2
:10545000B3CF1F920F920FB60F9211242F933F9349
:105460004F935F936F937F938F939F93AF93BF936C
:10547000CF93DF93EF93FF93D091E900DF7080919A
:10548000EC00C82FC17080FDC0E81092E900809147
:10549000F000877F8093F00078940E946D2A10922C
:1054A000E9008091F00088608093F000CD2BCF70F0
:1054B000C093E900FF91EF91DF91CF91BF91AF9140
:1054C0009F918F917F916F915F914F913F912F911C
:1054D0000F900FBE0F901F9018951F93CF93DF93DF
:1054E000CDB7DEB7AA970FB6F894DEBF0FBECDBF1B
:1054F0008CE693E02091F100FC012193CF01F3E0D1
:1055000084379F07B9F70E94DA258091E80083FF6E
:105510001EC180916C0390916D039A3008F017C101
:10552000E92FF0E0E859F24D0C94412C803899F0C5
:10553000823809F00CC1809170038F70873008F0B9
:1055400006C18093E9008091EB0085FB882780F9F4
:105550001092E90006C0809168039091690391114F
:1055600082609091E800977F9093E8008093F1002B
:105570001092F1008091E8008E77E5C0882309F44D
:10558000D3C0823009F0E3C080916E038111D6C090
:10559000809170038F702FEF280F263008F0D7C04E
:1055A0008093E9002091EB0020FFC8C0933031F4D4
:1055B0008091EB0080628093EB00C0C09091EB0083
:1055C00090619093EB0021E030E001C0220F8A95BA
:1055D000EAF72093EA001092EA008091EB008860DD
:1055E000EACF8111B4C010916E031F778091E30060
:1055F0008078812B8093E3008091E800877F8093FF
:10560000E8000E948A288091E80080FFFCCF80910A
:10561000E30080688093E30082E0111183E08093CF
:105620006B0395C08058823008F091C080916E0362
:1056300090916F038C3D23E09207A1F583E08A836C
:105640008AE289834FB7F894DE01139620E03EE0AA
:1056500051E2E32FF0E050935700E49120FF03C0A4
:10566000E295EF703F5FEF708E2F90E0EA30C0F070
:10567000C7968D939D932F5F243159F74FBF80912B
:10568000E800877F8093E8006AE270E0CE0101962F
:105690000E9499278091E8008B778093E80057C09B
:1056A000C096E7CF6091700370917103AE014F5FB8
:1056B0005F4F0E94DA26BC01892B09F448C0909103
:1056C000E800977F9093E80089819A810E94F727EC
:1056D000E1CF8038E1F58091E800877F8093E80092
:1056E000809167038093F10045CF811130C0909184
:1056F0006E03923060F58091E800877F8093E80028
:10570000909367030E948A2880916703882311F091
:1057100084E005C08091E30087FDFACF81E08093AB
:105720006B030E94D02513C080916E03813079F401
:1057300081E0933009F080E0809369031092E900E2
:105740008091E800877F8093E8000E948A288091FA
:10575000E80083FF0AC08091E800877F8093E8001B
:105760008091EB0080628093EB00AA960FB6F894CC
:10577000DEBF0FBECDBFDF91CF911F910895089579
:10578000CF9380916B038823A1F0C091E900CF7083
:105790009091EC00892F817090FD80E8C82B1092C9
:1057A000E9008091E80083FD0E946D2ACF70C093CC
:1057B000E900CF910895DB018F939F930E94652CA0
:1057C000BF91AF91A29F800D911DA39F900DB29F9D
:1057D000900D11240895991B79E004C0991F961724
:1057E00008F0961B881F7A95C9F780950895AA1B23
:1057F000BB1B51E107C0AA1FBB1FA617B70710F0BC
:10580000A61BB70B881F991F5A95A9F780959095ED
:10581000BC01CD01089597FB072E16F4009407D024
:1058200077FD09D00E94F72B07FC05D03EF4909538
:1058300081959F4F0895709561957F4F0895A1E2DE
:105840001A2EAA1BBB1BFD010DC0AA1FBB1FEE1FFA
:10585000FF1FA217B307E407F50720F0A21BB30B45
:10586000E40BF50B661F771F881F991F1A9469F7C1
:1058700060957095809590959B01AC01BD01CF011D
:105880000895EE0FFF1F0590F491E02D09940E94FA
:105890004F2C332312F48A1B9B0B0C94602CA29F79
:1058A000B001B39FC001A39F700D811D1124911DF4
:1058B000B29F700D811D1124911D08950E944F2CDF
:1058C000B7FF0895821B930B08950E944F2CA59F4C
:1058D000900DB49F900DA49F800D911D11240895EB
:1058E000B7FF0C94652C0E94652C821B930B0895C6
:1058F0008F929F92AF92BF92CF92DF92EF92FF92E0
:10590000CF93DF93EC01688179818A819B81611556
:1059100071058105910521F464E279ED8BE597E04D
:105920002DE133EF41E050E00E94292D49015A0159
:105930009B01AC01A7EAB1E40E94652C6B017C01DC
:10594000ACEEB4EFA50194010E94732CDC01CB01F5
:105950008C0D9D1DAE1DBF1DB7FF03C00197A10992
:10596000B04888839983AA83BB839F77DF91CF91C7
:10597000FF90EF90DF90CF90BF90AF909F908F906F
:1059800008950E94782C089580E091E00E94782C80
:105990000895B0E0A0E08093000190930101A093EE
:1059A0000201B09303010895FC014150504030F0D2
:1059B00001900616D1F73197CF01089588279927CE
:1059C0000895F999FECF92BD81BDF89A992780B5C7
:1059D0000895A6E1B0E044E050E00C941B2DA8E14E
:1059E000B0E042E050E00C941B2D262FF999FECF39
:1059F00092BD81BDF89A019700B4021639F01FBA22
:105A000020BD0FB6F894FA9AF99A0FBE089503963E
:105A1000272F0E94F62C0E94F52C252F0E94F62C91
:105A2000242F0C94F62C0196272F0E94F62C0C9410
:105A3000F52CDC01CB01FC01F999FECF06C0F2BDCB
:105A4000E1BDF89A319600B40D9241505040B8F73C
:105A50000895052E97FB1EF400940E94402D57FDDB
:105A600007D00E941F2C07FC03D04EF40C94402D4D
:105A700050954095309521953F4F4F4F5F4F08957A
:105A800090958095709561957F4F8F4F9F4F0895AA
:105A9000F894FFCF141A141A6C1A6C1ABE1ADA1A78
:105AA000411A411AE51A711B801B801BDC1B411A2D
:105AB000411AE51B5A1C5A1C631C631C651C631CA1
:105AC000631C631C5A1C5A1C6A1C631C631C6A1CE2
:105AD000962ABE2AA72BBE2AA72BF12A122BA72B68
:045AE000692B752B8E
